{
  "contractName": "DynamicNFT",
  "abi": [
    {
      "inputs": [
        {
          "internalType": "string",
          "name": "baseURI",
          "type": "string"
        }
      ],
      "stateMutability": "nonpayable",
      "type": "constructor"
    },
    {
      "anonymous": false,
      "inputs": [
        {
          "indexed": true,
          "internalType": "address",
          "name": "account",
          "type": "address"
        },
        {
          "indexed": true,
          "internalType": "address",
          "name": "operator",
          "type": "address"
        },
        {
          "indexed": false,
          "internalType": "bool",
          "name": "approved",
          "type": "bool"
        }
      ],
      "name": "ApprovalForAll",
      "type": "event"
    },
    {
      "anonymous": false,
      "inputs": [
        {
          "indexed": true,
          "internalType": "address",
          "name": "previousOwner",
          "type": "address"
        },
        {
          "indexed": true,
          "internalType": "address",
          "name": "newOwner",
          "type": "address"
        }
      ],
      "name": "OwnershipTransferred",
      "type": "event"
    },
    {
      "anonymous": false,
      "inputs": [
        {
          "indexed": true,
          "internalType": "address",
          "name": "operator",
          "type": "address"
        },
        {
          "indexed": true,
          "internalType": "address",
          "name": "from",
          "type": "address"
        },
        {
          "indexed": true,
          "internalType": "address",
          "name": "to",
          "type": "address"
        },
        {
          "indexed": false,
          "internalType": "uint256[]",
          "name": "ids",
          "type": "uint256[]"
        },
        {
          "indexed": false,
          "internalType": "uint256[]",
          "name": "values",
          "type": "uint256[]"
        }
      ],
      "name": "TransferBatch",
      "type": "event"
    },
    {
      "anonymous": false,
      "inputs": [
        {
          "indexed": true,
          "internalType": "address",
          "name": "operator",
          "type": "address"
        },
        {
          "indexed": true,
          "internalType": "address",
          "name": "from",
          "type": "address"
        },
        {
          "indexed": true,
          "internalType": "address",
          "name": "to",
          "type": "address"
        },
        {
          "indexed": false,
          "internalType": "uint256",
          "name": "id",
          "type": "uint256"
        },
        {
          "indexed": false,
          "internalType": "uint256",
          "name": "value",
          "type": "uint256"
        }
      ],
      "name": "TransferSingle",
      "type": "event"
    },
    {
      "anonymous": false,
      "inputs": [
        {
          "indexed": false,
          "internalType": "string",
          "name": "value",
          "type": "string"
        },
        {
          "indexed": true,
          "internalType": "uint256",
          "name": "id",
          "type": "uint256"
        }
      ],
      "name": "URI",
      "type": "event"
    },
    {
      "inputs": [],
      "name": "DYNAMIC_NFT",
      "outputs": [
        {
          "internalType": "uint256",
          "name": "",
          "type": "uint256"
        }
      ],
      "stateMutability": "view",
      "type": "function"
    },
    {
      "inputs": [
        {
          "internalType": "address",
          "name": "account",
          "type": "address"
        },
        {
          "internalType": "uint256",
          "name": "id",
          "type": "uint256"
        }
      ],
      "name": "balanceOf",
      "outputs": [
        {
          "internalType": "uint256",
          "name": "",
          "type": "uint256"
        }
      ],
      "stateMutability": "view",
      "type": "function"
    },
    {
      "inputs": [
        {
          "internalType": "address[]",
          "name": "accounts",
          "type": "address[]"
        },
        {
          "internalType": "uint256[]",
          "name": "ids",
          "type": "uint256[]"
        }
      ],
      "name": "balanceOfBatch",
      "outputs": [
        {
          "internalType": "uint256[]",
          "name": "",
          "type": "uint256[]"
        }
      ],
      "stateMutability": "view",
      "type": "function"
    },
    {
      "inputs": [
        {
          "internalType": "address",
          "name": "account",
          "type": "address"
        },
        {
          "internalType": "address",
          "name": "operator",
          "type": "address"
        }
      ],
      "name": "isApprovedForAll",
      "outputs": [
        {
          "internalType": "bool",
          "name": "",
          "type": "bool"
        }
      ],
      "stateMutability": "view",
      "type": "function"
    },
    {
      "inputs": [],
      "name": "owner",
      "outputs": [
        {
          "internalType": "address",
          "name": "",
          "type": "address"
        }
      ],
      "stateMutability": "view",
      "type": "function"
    },
    {
      "inputs": [],
      "name": "renounceOwnership",
      "outputs": [],
      "stateMutability": "nonpayable",
      "type": "function"
    },
    {
      "inputs": [
        {
          "internalType": "address",
          "name": "from",
          "type": "address"
        },
        {
          "internalType": "address",
          "name": "to",
          "type": "address"
        },
        {
          "internalType": "uint256[]",
          "name": "ids",
          "type": "uint256[]"
        },
        {
          "internalType": "uint256[]",
          "name": "amounts",
          "type": "uint256[]"
        },
        {
          "internalType": "bytes",
          "name": "data",
          "type": "bytes"
        }
      ],
      "name": "safeBatchTransferFrom",
      "outputs": [],
      "stateMutability": "nonpayable",
      "type": "function"
    },
    {
      "inputs": [
        {
          "internalType": "address",
          "name": "from",
          "type": "address"
        },
        {
          "internalType": "address",
          "name": "to",
          "type": "address"
        },
        {
          "internalType": "uint256",
          "name": "id",
          "type": "uint256"
        },
        {
          "internalType": "uint256",
          "name": "amount",
          "type": "uint256"
        },
        {
          "internalType": "bytes",
          "name": "data",
          "type": "bytes"
        }
      ],
      "name": "safeTransferFrom",
      "outputs": [],
      "stateMutability": "nonpayable",
      "type": "function"
    },
    {
      "inputs": [
        {
          "internalType": "address",
          "name": "operator",
          "type": "address"
        },
        {
          "internalType": "bool",
          "name": "approved",
          "type": "bool"
        }
      ],
      "name": "setApprovalForAll",
      "outputs": [],
      "stateMutability": "nonpayable",
      "type": "function"
    },
    {
      "inputs": [
        {
          "internalType": "bytes4",
          "name": "interfaceId",
          "type": "bytes4"
        }
      ],
      "name": "supportsInterface",
      "outputs": [
        {
          "internalType": "bool",
          "name": "",
          "type": "bool"
        }
      ],
      "stateMutability": "view",
      "type": "function"
    },
    {
      "inputs": [],
      "name": "tokenSupply",
      "outputs": [
        {
          "internalType": "uint256",
          "name": "",
          "type": "uint256"
        }
      ],
      "stateMutability": "view",
      "type": "function"
    },
    {
      "inputs": [
        {
          "internalType": "address",
          "name": "newOwner",
          "type": "address"
        }
      ],
      "name": "transferOwnership",
      "outputs": [],
      "stateMutability": "nonpayable",
      "type": "function"
    },
    {
      "inputs": [
        {
          "internalType": "string",
          "name": "newBaseURI",
          "type": "string"
        }
      ],
      "name": "setBaseURI",
      "outputs": [],
      "stateMutability": "nonpayable",
      "type": "function"
    },
    {
      "inputs": [
        {
          "internalType": "uint256",
          "name": "tokenId",
          "type": "uint256"
        }
      ],
      "name": "uri",
      "outputs": [
        {
          "internalType": "string",
          "name": "",
          "type": "string"
        }
      ],
      "stateMutability": "view",
      "type": "function"
    },
    {
      "inputs": [
        {
          "internalType": "address",
          "name": "to",
          "type": "address"
        },
        {
          "internalType": "uint256",
          "name": "tokenId",
          "type": "uint256"
        },
        {
          "internalType": "uint256",
          "name": "amount",
          "type": "uint256"
        },
        {
          "internalType": "string",
          "name": "tokenURI",
          "type": "string"
        }
      ],
      "name": "mint",
      "outputs": [],
      "stateMutability": "nonpayable",
      "type": "function"
    },
    {
      "inputs": [
        {
          "internalType": "uint256",
          "name": "tokenId",
          "type": "uint256"
        },
        {
          "internalType": "string",
          "name": "tokenURI",
          "type": "string"
        }
      ],
      "name": "updateTokenURI",
      "outputs": [],
      "stateMutability": "nonpayable",
      "type": "function"
    },
    {
      "inputs": [
        {
          "internalType": "address",
          "name": "account",
          "type": "address"
        },
        {
          "internalType": "uint256",
          "name": "tokenId",
          "type": "uint256"
        },
        {
          "internalType": "uint256",
          "name": "amount",
          "type": "uint256"
        }
      ],
      "name": "burn",
      "outputs": [],
      "stateMutability": "nonpayable",
      "type": "function"
    }
  ],
  "bytecode": "0x60806040523480156200001157600080fd5b5060405162003ddd38038062003ddd8339818101604052810190620000379190620002f9565b8062000049816200008360201b60201c565b506200006a6200005e6200009860201b60201c565b620000a060201b60201c565b80600590816200007b919062000595565b50506200067c565b806002908162000094919062000595565b5050565b600033905090565b6000600360009054906101000a900473ffffffffffffffffffffffffffffffffffffffff16905081600360006101000a81548173ffffffffffffffffffffffffffffffffffffffff021916908373ffffffffffffffffffffffffffffffffffffffff1602179055508173ffffffffffffffffffffffffffffffffffffffff168173ffffffffffffffffffffffffffffffffffffffff167f8be0079c531659141344cd1fd0a4f28419497f9722a3daafe3b4186f6b6457e060405160405180910390a35050565b6000604051905090565b600080fd5b600080fd5b600080fd5b600080fd5b6000601f19601f8301169050919050565b7f4e487b7100000000000000000000000000000000000000000000000000000000600052604160045260246000fd5b620001cf8262000184565b810181811067ffffffffffffffff82111715620001f157620001f062000195565b5b80604052505050565b60006200020662000166565b9050620002148282620001c4565b919050565b600067ffffffffffffffff82111562000237576200023662000195565b5b620002428262000184565b9050602081019050919050565b60005b838110156200026f57808201518184015260208101905062000252565b60008484015250505050565b6000620002926200028c8462000219565b620001fa565b905082815260208101848484011115620002b157620002b06200017f565b5b620002be8482856200024f565b509392505050565b600082601f830112620002de57620002dd6200017a565b5b8151620002f08482602086016200027b565b91505092915050565b60006020828403121562000312576200031162000170565b5b600082015167ffffffffffffffff81111562000333576200033262000175565b5b6200034184828501620002c6565b91505092915050565b600081519050919050565b7f4e487b7100000000000000000000000000000000000000000000000000000000600052602260045260246000fd5b600060028204905060018216806200039d57607f821691505b602082108103620003b357620003b262000355565b5b50919050565b60008190508160005260206000209050919050565b60006020601f8301049050919050565b600082821b905092915050565b6000600883026200041d7fffffffffffffffffffffffffffffffffffffffffffffffffffffffffffffffff82620003de565b620004298683620003de565b95508019841693508086168417925050509392505050565b6000819050919050565b6000819050919050565b600062000476620004706200046a8462000441565b6200044b565b62000441565b9050919050565b6000819050919050565b620004928362000455565b620004aa620004a1826200047d565b848454620003eb565b825550505050565b600090565b620004c1620004b2565b620004ce81848462000487565b505050565b5b81811015620004f657620004ea600082620004b7565b600181019050620004d4565b5050565b601f82111562000545576200050f81620003b9565b6200051a84620003ce565b810160208510156200052a578190505b620005426200053985620003ce565b830182620004d3565b50505b505050565b600082821c905092915050565b60006200056a600019846008026200054a565b1980831691505092915050565b600062000585838362000557565b9150826002028217905092915050565b620005a0826200034a565b67ffffffffffffffff811115620005bc57620005bb62000195565b5b620005c8825462000384565b620005d5828285620004fa565b600060209050601f8311600181146200060d5760008415620005f8578287015190505b62000604858262000577565b86555062000674565b601f1984166200061d86620003b9565b60005b82811015620006475784890151825560018201915060208501945060208101905062000620565b8683101562000667578489015162000663601f89168262000557565b8355505b6001600288020188555050505b505050505050565b613751806200068c6000396000f3fe608060405234801561001057600080fd5b506004361061010a5760003560e01c80637824407f116100a2578063e985e9c511610071578063e985e9c5146102a1578063f242432a146102d1578063f2fde38b146102ed578063f5298aca14610309578063ffcb8c37146103255761010a565b80637824407f1461022d5780638da5cb5b1461024b578063a22cb46514610269578063bb7fde71146102855761010a565b80632eb2c2d6116100de5780632eb2c2d6146101bb5780634e1273f4146101d757806355f804b314610207578063715018a6146102235761010a565b8062fdd58e1461010f57806301ffc9a71461013f5780630e89341c1461016f57806318e97fd11461019f575b600080fd5b61012960048036038101906101249190611c6a565b610343565b6040516101369190611cb9565b60405180910390f35b61015960048036038101906101549190611d2c565b61040b565b6040516101669190611d74565b60405180910390f35b61018960048036038101906101849190611d8f565b6104ed565b6040516101969190611e4c565b60405180910390f35b6101b960048036038101906101b49190611fa3565b61052b565b005b6101d560048036038101906101d09190612168565b61059c565b005b6101f160048036038101906101ec91906122fa565b61063d565b6040516101fe9190612430565b60405180910390f35b610221600480360381019061021c9190612452565b610756565b005b61022b610771565b005b610235610785565b6040516102429190611cb9565b60405180910390f35b61025361078b565b60405161026091906124aa565b60405180910390f35b610283600480360381019061027e91906124f1565b6107b5565b005b61029f600480360381019061029a9190612531565b6107cb565b005b6102bb60048036038101906102b691906125b4565b61082e565b6040516102c89190611d74565b60405180910390f35b6102eb60048036038101906102e691906125f4565b6108c2565b005b6103076004803603810190610302919061268b565b610963565b005b610323600480360381019061031e91906126b8565b6109e6565b005b61032d610a8e565b60405161033a9190611cb9565b60405180910390f35b60008073ffffffffffffffffffffffffffffffffffffffff168373ffffffffffffffffffffffffffffffffffffffff16036103b3576040517f08c379a00000000000000000000000000000000000000000000000000000000081526004016103aa9061277d565b60405180910390fd5b60008083815260200190815260200160002060008473ffffffffffffffffffffffffffffffffffffffff1673ffffffffffffffffffffffffffffffffffffffff16815260200190815260200160002054905092915050565b60007fd9b67a26000000000000000000000000000000000000000000000000000000007bffffffffffffffffffffffffffffffffffffffffffffffffffffffff1916827bffffffffffffffffffffffffffffffffffffffffffffffffffffffff191614806104d657507f0e89341c000000000000000000000000000000000000000000000000000000007bffffffffffffffffffffffffffffffffffffffffffffffffffffffff1916827bffffffffffffffffffffffffffffffffffffffffffffffffffffffff1916145b806104e657506104e582610a93565b5b9050919050565b60606005600660008481526020019081526020016000206040516020016105159291906128a0565b6040516020818303038152906040529050919050565b60006105373384610343565b11610577576040517f08c379a000000000000000000000000000000000000000000000000000000000815260040161056e90612936565b60405180910390fd5b806006600084815260200190815260200160002090816105979190612aed565b505050565b6105a4610afd565b73ffffffffffffffffffffffffffffffffffffffff168573ffffffffffffffffffffffffffffffffffffffff1614806105ea57506105e9856105e4610afd565b61082e565b5b610629576040517f08c379a000000000000000000000000000000000000000000000000000000000815260040161062090612c31565b60405180910390fd5b6106368585858585610b05565b5050505050565b60608151835114610683576040517f08c379a000000000000000000000000000000000000000000000000000000000815260040161067a90612cc3565b60405180910390fd5b6000835167ffffffffffffffff8111156106a05761069f611e78565b5b6040519080825280602002602001820160405280156106ce5781602001602082028036833780820191505090505b50905060005b845181101561074b5761071b8582815181106106f3576106f2612ce3565b5b602002602001015185838151811061070e5761070d612ce3565b5b6020026020010151610343565b82828151811061072e5761072d612ce3565b5b6020026020010181815250508061074490612d41565b90506106d4565b508091505092915050565b61075e610e26565b806005908161076d9190612aed565b5050565b610779610e26565b6107836000610ea4565b565b60045481565b6000600360009054906101000a900473ffffffffffffffffffffffffffffffffffffffff16905090565b6107c76107c0610afd565b8383610f6a565b5050565b6107d3610e26565b6107ee848484604051806020016040528060008152506110d6565b8060066000858152602001908152602001600020908161080e9190612aed565b5081600460008282546108219190612d89565b9250508190555050505050565b6000600160008473ffffffffffffffffffffffffffffffffffffffff1673ffffffffffffffffffffffffffffffffffffffff16815260200190815260200160002060008373ffffffffffffffffffffffffffffffffffffffff1673ffffffffffffffffffffffffffffffffffffffff16815260200190815260200160002060009054906101000a900460ff16905092915050565b6108ca610afd565b73ffffffffffffffffffffffffffffffffffffffff168573ffffffffffffffffffffffffffffffffffffffff161480610910575061090f8561090a610afd565b61082e565b5b61094f576040517f08c379a000000000000000000000000000000000000000000000000000000000815260040161094690612c31565b60405180910390fd5b61095c8585858585611286565b5050505050565b61096b610e26565b600073ffffffffffffffffffffffffffffffffffffffff168173ffffffffffffffffffffffffffffffffffffffff16036109da576040517f08c379a00000000000000000000000000000000000000000000000000000000081526004016109d190612e2f565b60405180910390fd5b6109e381610ea4565b50565b8273ffffffffffffffffffffffffffffffffffffffff163373ffffffffffffffffffffffffffffffffffffffff161480610a265750610a25833361082e565b5b610a65576040517f08c379a0000000000000000000000000000000000000000000000000000000008152600401610a5c90612ec1565b60405180910390fd5b610a70838383611521565b8060046000828254610a829190612ee1565b92505081905550505050565b600081565b60007f01ffc9a7000000000000000000000000000000000000000000000000000000007bffffffffffffffffffffffffffffffffffffffffffffffffffffffff1916827bffffffffffffffffffffffffffffffffffffffffffffffffffffffff1916149050919050565b600033905090565b8151835114610b49576040517f08c379a0000000000000000000000000000000000000000000000000000000008152600401610b4090612f87565b60405180910390fd5b600073ffffffffffffffffffffffffffffffffffffffff168473ffffffffffffffffffffffffffffffffffffffff1603610bb8576040517f08c379a0000000000000000000000000000000000000000000000000000000008152600401610baf90613019565b60405180910390fd5b6000610bc2610afd565b9050610bd2818787878787611767565b60005b8451811015610d83576000858281518110610bf357610bf2612ce3565b5b602002602001015190506000858381518110610c1257610c11612ce3565b5b60200260200101519050600080600084815260200190815260200160002060008b73ffffffffffffffffffffffffffffffffffffffff1673ffffffffffffffffffffffffffffffffffffffff16815260200190815260200160002054905081811015610cb3576040517f08c379a0000000000000000000000000000000000000000000000000000000008152600401610caa906130ab565b60405180910390fd5b81810360008085815260200190815260200160002060008c73ffffffffffffffffffffffffffffffffffffffff1673ffffffffffffffffffffffffffffffffffffffff168152602001908152602001600020819055508160008085815260200190815260200160002060008b73ffffffffffffffffffffffffffffffffffffffff1673ffffffffffffffffffffffffffffffffffffffff1681526020019081526020016000206000828254610d689190612d89565b9250508190555050505080610d7c90612d41565b9050610bd5565b508473ffffffffffffffffffffffffffffffffffffffff168673ffffffffffffffffffffffffffffffffffffffff168273ffffffffffffffffffffffffffffffffffffffff167f4a39dc06d4c0dbc64b70af90fd698a233a518aa5d07e595d983b8c0526c8f7fb8787604051610dfa9291906130cb565b60405180910390a4610e1081878787878761176f565b610e1e818787878787611777565b505050505050565b610e2e610afd565b73ffffffffffffffffffffffffffffffffffffffff16610e4c61078b565b73ffffffffffffffffffffffffffffffffffffffff1614610ea2576040517f08c379a0000000000000000000000000000000000000000000000000000000008152600401610e999061314e565b60405180910390fd5b565b6000600360009054906101000a900473ffffffffffffffffffffffffffffffffffffffff16905081600360006101000a81548173ffffffffffffffffffffffffffffffffffffffff021916908373ffffffffffffffffffffffffffffffffffffffff1602179055508173ffffffffffffffffffffffffffffffffffffffff168173ffffffffffffffffffffffffffffffffffffffff167f8be0079c531659141344cd1fd0a4f28419497f9722a3daafe3b4186f6b6457e060405160405180910390a35050565b8173ffffffffffffffffffffffffffffffffffffffff168373ffffffffffffffffffffffffffffffffffffffff1603610fd8576040517f08c379a0000000000000000000000000000000000000000000000000000000008152600401610fcf906131e0565b60405180910390fd5b80600160008573ffffffffffffffffffffffffffffffffffffffff1673ffffffffffffffffffffffffffffffffffffffff16815260200190815260200160002060008473ffffffffffffffffffffffffffffffffffffffff1673ffffffffffffffffffffffffffffffffffffffff16815260200190815260200160002060006101000a81548160ff0219169083151502179055508173ffffffffffffffffffffffffffffffffffffffff168373ffffffffffffffffffffffffffffffffffffffff167f17307eab39ab6107e8899845ad3d59bd9653f200f220920489ca2b5937696c31836040516110c99190611d74565b60405180910390a3505050565b600073ffffffffffffffffffffffffffffffffffffffff168473ffffffffffffffffffffffffffffffffffffffff1603611145576040517f08c379a000000000000000000000000000000000000000000000000000000000815260040161113c90613272565b60405180910390fd5b600061114f610afd565b9050600061115c8561194e565b905060006111698561194e565b905061117a83600089858589611767565b8460008088815260200190815260200160002060008973ffffffffffffffffffffffffffffffffffffffff1673ffffffffffffffffffffffffffffffffffffffff16815260200190815260200160002060008282546111d99190612d89565b925050819055508673ffffffffffffffffffffffffffffffffffffffff16600073ffffffffffffffffffffffffffffffffffffffff168473ffffffffffffffffffffffffffffffffffffffff167fc3d58168c5ae7397731d063d5bbf3d657854427343f4c083240f7aacaa2d0f628989604051611257929190613292565b60405180910390a461126e8360008985858961176f565b61127d836000898989896119c8565b50505050505050565b600073ffffffffffffffffffffffffffffffffffffffff168473ffffffffffffffffffffffffffffffffffffffff16036112f5576040517f08c379a00000000000000000000000000000000000000000000000000000000081526004016112ec90613019565b60405180910390fd5b60006112ff610afd565b9050600061130c8561194e565b905060006113198561194e565b9050611329838989858589611767565b600080600088815260200190815260200160002060008a73ffffffffffffffffffffffffffffffffffffffff1673ffffffffffffffffffffffffffffffffffffffff168152602001908152602001600020549050858110156113c0576040517f08c379a00000000000000000000000000000000000000000000000000000000081526004016113b7906130ab565b60405180910390fd5b85810360008089815260200190815260200160002060008b73ffffffffffffffffffffffffffffffffffffffff1673ffffffffffffffffffffffffffffffffffffffff168152602001908152602001600020819055508560008089815260200190815260200160002060008a73ffffffffffffffffffffffffffffffffffffffff1673ffffffffffffffffffffffffffffffffffffffff16815260200190815260200160002060008282546114759190612d89565b925050819055508773ffffffffffffffffffffffffffffffffffffffff168973ffffffffffffffffffffffffffffffffffffffff168573ffffffffffffffffffffffffffffffffffffffff167fc3d58168c5ae7397731d063d5bbf3d657854427343f4c083240f7aacaa2d0f628a8a6040516114f2929190613292565b60405180910390a4611508848a8a86868a61176f565b611516848a8a8a8a8a6119c8565b505050505050505050565b600073ffffffffffffffffffffffffffffffffffffffff168373ffffffffffffffffffffffffffffffffffffffff1603611590576040517f08c379a00000000000000000000000000000000000000000000000000000000081526004016115879061332d565b60405180910390fd5b600061159a610afd565b905060006115a78461194e565b905060006115b48461194e565b90506115d483876000858560405180602001604052806000815250611767565b600080600087815260200190815260200160002060008873ffffffffffffffffffffffffffffffffffffffff1673ffffffffffffffffffffffffffffffffffffffff1681526020019081526020016000205490508481101561166b576040517f08c379a0000000000000000000000000000000000000000000000000000000008152600401611662906133bf565b60405180910390fd5b84810360008088815260200190815260200160002060008973ffffffffffffffffffffffffffffffffffffffff1673ffffffffffffffffffffffffffffffffffffffff16815260200190815260200160002081905550600073ffffffffffffffffffffffffffffffffffffffff168773ffffffffffffffffffffffffffffffffffffffff168573ffffffffffffffffffffffffffffffffffffffff167fc3d58168c5ae7397731d063d5bbf3d657854427343f4c083240f7aacaa2d0f628989604051611738929190613292565b60405180910390a461175e8488600086866040518060200160405280600081525061176f565b50505050505050565b505050505050565b505050505050565b6117968473ffffffffffffffffffffffffffffffffffffffff16611b9f565b15611946578373ffffffffffffffffffffffffffffffffffffffff1663bc197c8187878686866040518663ffffffff1660e01b81526004016117dc959493929190613434565b6020604051808303816000875af192505050801561181857506040513d601f19601f8201168201806040525081019061181591906134b1565b60015b6118bd576118246134eb565b806308c379a003611880575061183861350d565b806118435750611882565b806040517f08c379a00000000000000000000000000000000000000000000000000000000081526004016118779190611e4c565b60405180910390fd5b505b6040517f08c379a00000000000000000000000000000000000000000000000000000000081526004016118b49061360f565b60405180910390fd5b63bc197c8160e01b7bffffffffffffffffffffffffffffffffffffffffffffffffffffffff1916817bffffffffffffffffffffffffffffffffffffffffffffffffffffffff191614611944576040517f08c379a000000000000000000000000000000000000000000000000000000000815260040161193b906136a1565b60405180910390fd5b505b505050505050565b60606000600167ffffffffffffffff81111561196d5761196c611e78565b5b60405190808252806020026020018201604052801561199b5781602001602082028036833780820191505090505b50905082816000815181106119b3576119b2612ce3565b5b60200260200101818152505080915050919050565b6119e78473ffffffffffffffffffffffffffffffffffffffff16611b9f565b15611b97578373ffffffffffffffffffffffffffffffffffffffff1663f23a6e6187878686866040518663ffffffff1660e01b8152600401611a2d9594939291906136c1565b6020604051808303816000875af1925050508015611a6957506040513d601f19601f82011682018060405250810190611a6691906134b1565b60015b611b0e57611a756134eb565b806308c379a003611ad15750611a8961350d565b80611a945750611ad3565b806040517f08c379a0000000000000000000000000000000000000000000000000000000008152600401611ac89190611e4c565b60405180910390fd5b505b6040517f08c379a0000000000000000000000000000000000000000000000000000000008152600401611b059061360f565b60405180910390fd5b63f23a6e6160e01b7bffffffffffffffffffffffffffffffffffffffffffffffffffffffff1916817bffffffffffffffffffffffffffffffffffffffffffffffffffffffff191614611b95576040517f08c379a0000000000000000000000000000000000000000000000000000000008152600401611b8c906136a1565b60405180910390fd5b505b505050505050565b6000808273ffffffffffffffffffffffffffffffffffffffff163b119050919050565b6000604051905090565b600080fd5b600080fd5b600073ffffffffffffffffffffffffffffffffffffffff82169050919050565b6000611c0182611bd6565b9050919050565b611c1181611bf6565b8114611c1c57600080fd5b50565b600081359050611c2e81611c08565b92915050565b6000819050919050565b611c4781611c34565b8114611c5257600080fd5b50565b600081359050611c6481611c3e565b92915050565b60008060408385031215611c8157611c80611bcc565b5b6000611c8f85828601611c1f565b9250506020611ca085828601611c55565b9150509250929050565b611cb381611c34565b82525050565b6000602082019050611cce6000830184611caa565b92915050565b60007fffffffff0000000000000000000000000000000000000000000000000000000082169050919050565b611d0981611cd4565b8114611d1457600080fd5b50565b600081359050611d2681611d00565b92915050565b600060208284031215611d4257611d41611bcc565b5b6000611d5084828501611d17565b91505092915050565b60008115159050919050565b611d6e81611d59565b82525050565b6000602082019050611d896000830184611d65565b92915050565b600060208284031215611da557611da4611bcc565b5b6000611db384828501611c55565b91505092915050565b600081519050919050565b600082825260208201905092915050565b60005b83811015611df6578082015181840152602081019050611ddb565b60008484015250505050565b6000601f19601f8301169050919050565b6000611e1e82611dbc565b611e288185611dc7565b9350611e38818560208601611dd8565b611e4181611e02565b840191505092915050565b60006020820190508181036000830152611e668184611e13565b905092915050565b600080fd5b600080fd5b7f4e487b7100000000000000000000000000000000000000000000000000000000600052604160045260246000fd5b611eb082611e02565b810181811067ffffffffffffffff82111715611ecf57611ece611e78565b5b80604052505050565b6000611ee2611bc2565b9050611eee8282611ea7565b919050565b600067ffffffffffffffff821115611f0e57611f0d611e78565b5b611f1782611e02565b9050602081019050919050565b82818337600083830152505050565b6000611f46611f4184611ef3565b611ed8565b905082815260208101848484011115611f6257611f61611e73565b5b611f6d848285611f24565b509392505050565b600082601f830112611f8a57611f89611e6e565b5b8135611f9a848260208601611f33565b91505092915050565b60008060408385031215611fba57611fb9611bcc565b5b6000611fc885828601611c55565b925050602083013567ffffffffffffffff811115611fe957611fe8611bd1565b5b611ff585828601611f75565b9150509250929050565b600067ffffffffffffffff82111561201a57612019611e78565b5b602082029050602081019050919050565b600080fd5b600061204361203e84611fff565b611ed8565b905080838252602082019050602084028301858111156120665761206561202b565b5b835b8181101561208f578061207b8882611c55565b845260208401935050602081019050612068565b5050509392505050565b600082601f8301126120ae576120ad611e6e565b5b81356120be848260208601612030565b91505092915050565b600067ffffffffffffffff8211156120e2576120e1611e78565b5b6120eb82611e02565b9050602081019050919050565b600061210b612106846120c7565b611ed8565b90508281526020810184848401111561212757612126611e73565b5b612132848285611f24565b509392505050565b600082601f83011261214f5761214e611e6e565b5b813561215f8482602086016120f8565b91505092915050565b600080600080600060a0868803121561218457612183611bcc565b5b600061219288828901611c1f565b95505060206121a388828901611c1f565b945050604086013567ffffffffffffffff8111156121c4576121c3611bd1565b5b6121d088828901612099565b935050606086013567ffffffffffffffff8111156121f1576121f0611bd1565b5b6121fd88828901612099565b925050608086013567ffffffffffffffff81111561221e5761221d611bd1565b5b61222a8882890161213a565b9150509295509295909350565b600067ffffffffffffffff82111561225257612251611e78565b5b602082029050602081019050919050565b600061227661227184612237565b611ed8565b905080838252602082019050602084028301858111156122995761229861202b565b5b835b818110156122c257806122ae8882611c1f565b84526020840193505060208101905061229b565b5050509392505050565b600082601f8301126122e1576122e0611e6e565b5b81356122f1848260208601612263565b91505092915050565b6000806040838503121561231157612310611bcc565b5b600083013567ffffffffffffffff81111561232f5761232e611bd1565b5b61233b858286016122cc565b925050602083013567ffffffffffffffff81111561235c5761235b611bd1565b5b61236885828601612099565b9150509250929050565b600081519050919050565b600082825260208201905092915050565b6000819050602082019050919050565b6123a781611c34565b82525050565b60006123b9838361239e565b60208301905092915050565b6000602082019050919050565b60006123dd82612372565b6123e7818561237d565b93506123f28361238e565b8060005b8381101561242357815161240a88826123ad565b9750612415836123c5565b9250506001810190506123f6565b5085935050505092915050565b6000602082019050818103600083015261244a81846123d2565b905092915050565b60006020828403121561246857612467611bcc565b5b600082013567ffffffffffffffff81111561248657612485611bd1565b5b61249284828501611f75565b91505092915050565b6124a481611bf6565b82525050565b60006020820190506124bf600083018461249b565b92915050565b6124ce81611d59565b81146124d957600080fd5b50565b6000813590506124eb816124c5565b92915050565b6000806040838503121561250857612507611bcc565b5b600061251685828601611c1f565b9250506020612527858286016124dc565b9150509250929050565b6000806000806080858703121561254b5761254a611bcc565b5b600061255987828801611c1f565b945050602061256a87828801611c55565b935050604061257b87828801611c55565b925050606085013567ffffffffffffffff81111561259c5761259b611bd1565b5b6125a887828801611f75565b91505092959194509250565b600080604083850312156125cb576125ca611bcc565b5b60006125d985828601611c1f565b92505060206125ea85828601611c1f565b9150509250929050565b600080600080600060a086880312156126105761260f611bcc565b5b600061261e88828901611c1f565b955050602061262f88828901611c1f565b945050604061264088828901611c55565b935050606061265188828901611c55565b925050608086013567ffffffffffffffff81111561267257612671611bd1565b5b61267e8882890161213a565b9150509295509295909350565b6000602082840312156126a1576126a0611bcc565b5b60006126af84828501611c1f565b91505092915050565b6000806000606084860312156126d1576126d0611bcc565b5b60006126df86828701611c1f565b93505060206126f086828701611c55565b925050604061270186828701611c55565b9150509250925092565b7f455243313135353a2061646472657373207a65726f206973206e6f742061207660008201527f616c6964206f776e657200000000000000000000000000000000000000000000602082015250565b6000612767602a83611dc7565b91506127728261270b565b604082019050919050565b600060208201905081810360008301526127968161275a565b9050919050565b7f4e487b7100000000000000000000000000000000000000000000000000000000600052602260045260246000fd5b600060028204905060018216806127e457607f821691505b6020821081036127f7576127f661279d565b5b50919050565b600081905092915050565b60008190508160005260206000209050919050565b6000815461282a816127cc565b61283481866127fd565b9450600182166000811461284f576001811461286457612897565b60ff1983168652811515820286019350612897565b61286d85612808565b60005b8381101561288f57815481890152600182019150602081019050612870565b838801955050505b50505092915050565b60006128ac828561281d565b91506128b8828461281d565b91508190509392505050565b7f44796e616d69634e46543a2063616c6c6572206973206e6f74206f776e65722060008201527f6f662074686520746f6b656e0000000000000000000000000000000000000000602082015250565b6000612920602c83611dc7565b915061292b826128c4565b604082019050919050565b6000602082019050818103600083015261294f81612913565b9050919050565b60006020601f8301049050919050565b600082821b905092915050565b6000600883026129a37fffffffffffffffffffffffffffffffffffffffffffffffffffffffffffffffff82612966565b6129ad8683612966565b95508019841693508086168417925050509392505050565b6000819050919050565b60006129ea6129e56129e084611c34565b6129c5565b611c34565b9050919050565b6000819050919050565b612a04836129cf565b612a18612a10826129f1565b848454612973565b825550505050565b600090565b612a2d612a20565b612a388184846129fb565b505050565b5b81811015612a5c57612a51600082612a25565b600181019050612a3e565b5050565b601f821115612aa157612a7281612808565b612a7b84612956565b81016020851015612a8a578190505b612a9e612a9685612956565b830182612a3d565b50505b505050565b600082821c905092915050565b6000612ac460001984600802612aa6565b1980831691505092915050565b6000612add8383612ab3565b9150826002028217905092915050565b612af682611dbc565b67ffffffffffffffff811115612b0f57612b0e611e78565b5b612b1982546127cc565b612b24828285612a60565b600060209050601f831160018114612b575760008415612b45578287015190505b612b4f8582612ad1565b865550612bb7565b601f198416612b6586612808565b60005b82811015612b8d57848901518255600182019150602085019450602081019050612b68565b86831015612baa5784890151612ba6601f891682612ab3565b8355505b6001600288020188555050505b505050505050565b7f455243313135353a2063616c6c6572206973206e6f7420746f6b656e206f776e60008201527f6572206f7220617070726f766564000000000000000000000000000000000000602082015250565b6000612c1b602e83611dc7565b9150612c2682612bbf565b604082019050919050565b60006020820190508181036000830152612c4a81612c0e565b9050919050565b7f455243313135353a206163636f756e747320616e6420696473206c656e67746860008201527f206d69736d617463680000000000000000000000000000000000000000000000602082015250565b6000612cad602983611dc7565b9150612cb882612c51565b604082019050919050565b60006020820190508181036000830152612cdc81612ca0565b9050919050565b7f4e487b7100000000000000000000000000000000000000000000000000000000600052603260045260246000fd5b7f4e487b7100000000000000000000000000000000000000000000000000000000600052601160045260246000fd5b6000612d4c82611c34565b91507fffffffffffffffffffffffffffffffffffffffffffffffffffffffffffffffff8203612d7e57612d7d612d12565b5b600182019050919050565b6000612d9482611c34565b9150612d9f83611c34565b9250828201905080821115612db757612db6612d12565b5b92915050565b7f4f776e61626c653a206e6577206f776e657220697320746865207a65726f206160008201527f6464726573730000000000000000000000000000000000000000000000000000602082015250565b6000612e19602683611dc7565b9150612e2482612dbd565b604082019050919050565b60006020820190508181036000830152612e4881612e0c565b9050919050565b7f44796e616d69634e46543a2063616c6c6572206973206e6f74206f776e65722060008201527f6e6f7220617070726f7665640000000000000000000000000000000000000000602082015250565b6000612eab602c83611dc7565b9150612eb682612e4f565b604082019050919050565b60006020820190508181036000830152612eda81612e9e565b9050919050565b6000612eec82611c34565b9150612ef783611c34565b9250828203905081811115612f0f57612f0e612d12565b5b92915050565b7f455243313135353a2069647320616e6420616d6f756e7473206c656e6774682060008201527f6d69736d61746368000000000000000000000000000000000000000000000000602082015250565b6000612f71602883611dc7565b9150612f7c82612f15565b604082019050919050565b60006020820190508181036000830152612fa081612f64565b9050919050565b7f455243313135353a207472616e7366657220746f20746865207a65726f20616460008201527f6472657373000000000000000000000000000000000000000000000000000000602082015250565b6000613003602583611dc7565b915061300e82612fa7565b604082019050919050565b6000602082019050818103600083015261303281612ff6565b9050919050565b7f455243313135353a20696e73756666696369656e742062616c616e636520666f60008201527f72207472616e7366657200000000000000000000000000000000000000000000602082015250565b6000613095602a83611dc7565b91506130a082613039565b604082019050919050565b600060208201905081810360008301526130c481613088565b9050919050565b600060408201905081810360008301526130e581856123d2565b905081810360208301526130f981846123d2565b90509392505050565b7f4f776e61626c653a2063616c6c6572206973206e6f7420746865206f776e6572600082015250565b6000613138602083611dc7565b915061314382613102565b602082019050919050565b600060208201905081810360008301526131678161312b565b9050919050565b7f455243313135353a2073657474696e6720617070726f76616c2073746174757360008201527f20666f722073656c660000000000000000000000000000000000000000000000602082015250565b60006131ca602983611dc7565b91506131d58261316e565b604082019050919050565b600060208201905081810360008301526131f9816131bd565b9050919050565b7f455243313135353a206d696e7420746f20746865207a65726f2061646472657360008201527f7300000000000000000000000000000000000000000000000000000000000000602082015250565b600061325c602183611dc7565b915061326782613200565b604082019050919050565b6000602082019050818103600083015261328b8161324f565b9050919050565b60006040820190506132a76000830185611caa565b6132b46020830184611caa565b9392505050565b7f455243313135353a206275726e2066726f6d20746865207a65726f206164647260008201527f6573730000000000000000000000000000000000000000000000000000000000602082015250565b6000613317602383611dc7565b9150613322826132bb565b604082019050919050565b600060208201905081810360008301526133468161330a565b9050919050565b7f455243313135353a206275726e20616d6f756e7420657863656564732062616c60008201527f616e636500000000000000000000000000000000000000000000000000000000602082015250565b60006133a9602483611dc7565b91506133b48261334d565b604082019050919050565b600060208201905081810360008301526133d88161339c565b9050919050565b600081519050919050565b600082825260208201905092915050565b6000613406826133df565b61341081856133ea565b9350613420818560208601611dd8565b61342981611e02565b840191505092915050565b600060a082019050613449600083018861249b565b613456602083018761249b565b818103604083015261346881866123d2565b9050818103606083015261347c81856123d2565b9050818103608083015261349081846133fb565b90509695505050505050565b6000815190506134ab81611d00565b92915050565b6000602082840312156134c7576134c6611bcc565b5b60006134d58482850161349c565b91505092915050565b60008160e01c9050919050565b600060033d111561350a5760046000803e6135076000516134de565b90505b90565b600060443d1061359a5761351f611bc2565b60043d036004823e80513d602482011167ffffffffffffffff8211171561354757505061359a565b808201805167ffffffffffffffff811115613565575050505061359a565b80602083010160043d03850181111561358257505050505061359a565b61359182602001850186611ea7565b82955050505050505b90565b7f455243313135353a207472616e7366657220746f206e6f6e2d4552433131353560008201527f526563656976657220696d706c656d656e746572000000000000000000000000602082015250565b60006135f9603483611dc7565b91506136048261359d565b604082019050919050565b60006020820190508181036000830152613628816135ec565b9050919050565b7f455243313135353a204552433131353552656365697665722072656a6563746560008201527f6420746f6b656e73000000000000000000000000000000000000000000000000602082015250565b600061368b602883611dc7565b91506136968261362f565b604082019050919050565b600060208201905081810360008301526136ba8161367e565b9050919050565b600060a0820190506136d6600083018861249b565b6136e3602083018761249b565b6136f06040830186611caa565b6136fd6060830185611caa565b818103608083015261370f81846133fb565b9050969550505050505056fea2646970667358221220e8083fb7162012042f440107a6928682bc8ea61d1c6b9e5cd6bfbfad84cdedc964736f6c63430008130033",
  "immutableReferences": {},
  "source": "pragma solidity ^0.8.0;\n\nimport \"@openzeppelin/contracts/token/ERC1155/ERC1155.sol\";\nimport \"@openzeppelin/contracts/access/Ownable.sol\";\nimport \"@openzeppelin/contracts/utils/Strings.sol\";\n\ncontract DynamicNFT is ERC1155, Ownable {\n    uint256 public constant DYNAMIC_NFT = 0;\n    uint256 public tokenSupply;\n\n    // Metadata URI\n    string private _baseURI;\n\n    // Mapping from token ID to metadata\n    mapping(uint256 => string) private _tokenURIs;\n\n    constructor(string memory baseURI) ERC1155(baseURI) {\n        _baseURI = baseURI;\n    }\n\n    function setBaseURI(string memory newBaseURI) public onlyOwner {\n        _baseURI = newBaseURI;\n    }\n\n    function uri(uint256 tokenId) public view virtual override returns (string memory) {\n        return string(abi.encodePacked(_baseURI, _tokenURIs[tokenId]));\n    }\n\n    function mint(address to, uint256 tokenId, uint256 amount, string memory tokenURI) public onlyOwner {\n        _mint(to, tokenId, amount, \"\");\n        _tokenURIs[tokenId] = tokenURI;\n        tokenSupply += amount;\n    }\n\n    function updateTokenURI(uint256 tokenId, string memory tokenURI) public {\n    require(balanceOf(msg.sender, tokenId) > 0, \"DynamicNFT: caller is not owner of the token\");\n    _tokenURIs[tokenId] = tokenURI;\n}\n\n\n    function burn(address account, uint256 tokenId, uint256 amount) public {\n        require(msg.sender == account || isApprovedForAll(account, msg.sender), \"DynamicNFT: caller is not owner nor approved\");\n        _burn(account, tokenId, amount);\n        tokenSupply -= amount;\n    }\n}\n",
  "sourcePath": "/home/cho/Downloads/erc1155_test/contracts/DynamicNFT.sol",
  "compiler": {
    "name": "solc",
    "version": "0.8.19+commit.7dd6d404.Emscripten.clang"
  },
  "schemaVersion": "3.4.13",
  "updatedAt": "2023-05-02T08:04:37.325Z",
  "devdoc": {
    "events": {
      "ApprovalForAll(address,address,bool)": {
        "details": "Emitted when `account` grants or revokes permission to `operator` to transfer their tokens, according to `approved`."
      },
      "TransferBatch(address,address,address,uint256[],uint256[])": {
        "details": "Equivalent to multiple {TransferSingle} events, where `operator`, `from` and `to` are the same for all transfers."
      },
      "TransferSingle(address,address,address,uint256,uint256)": {
        "details": "Emitted when `value` tokens of token type `id` are transferred from `from` to `to` by `operator`."
      },
      "URI(string,uint256)": {
        "details": "Emitted when the URI for token type `id` changes to `value`, if it is a non-programmatic URI. If an {URI} event was emitted for `id`, the standard https://eips.ethereum.org/EIPS/eip-1155#metadata-extensions[guarantees] that `value` will equal the value returned by {IERC1155MetadataURI-uri}."
      }
    },
    "kind": "dev",
    "methods": {
      "balanceOf(address,uint256)": {
        "details": "See {IERC1155-balanceOf}. Requirements: - `account` cannot be the zero address."
      },
      "balanceOfBatch(address[],uint256[])": {
        "details": "See {IERC1155-balanceOfBatch}. Requirements: - `accounts` and `ids` must have the same length."
      },
      "isApprovedForAll(address,address)": {
        "details": "See {IERC1155-isApprovedForAll}."
      },
      "owner()": {
        "details": "Returns the address of the current owner."
      },
      "renounceOwnership()": {
        "details": "Leaves the contract without owner. It will not be possible to call `onlyOwner` functions anymore. Can only be called by the current owner. NOTE: Renouncing ownership will leave the contract without an owner, thereby removing any functionality that is only available to the owner."
      },
      "safeBatchTransferFrom(address,address,uint256[],uint256[],bytes)": {
        "details": "See {IERC1155-safeBatchTransferFrom}."
      },
      "safeTransferFrom(address,address,uint256,uint256,bytes)": {
        "details": "See {IERC1155-safeTransferFrom}."
      },
      "setApprovalForAll(address,bool)": {
        "details": "See {IERC1155-setApprovalForAll}."
      },
      "supportsInterface(bytes4)": {
        "details": "See {IERC165-supportsInterface}."
      },
      "transferOwnership(address)": {
        "details": "Transfers ownership of the contract to a new account (`newOwner`). Can only be called by the current owner."
      }
    },
    "version": 1
  },
  "userdoc": {
    "kind": "user",
    "methods": {},
    "version": 1
  }
}