{
  "contractName": "DynamicNFT",
  "abi": [
    {
      "inputs": [
        {
          "internalType": "string",
          "name": "baseURI",
          "type": "string"
        }
      ],
      "stateMutability": "nonpayable",
      "type": "constructor"
    },
    {
      "anonymous": false,
      "inputs": [
        {
          "indexed": true,
          "internalType": "address",
          "name": "account",
          "type": "address"
        },
        {
          "indexed": true,
          "internalType": "address",
          "name": "operator",
          "type": "address"
        },
        {
          "indexed": false,
          "internalType": "bool",
          "name": "approved",
          "type": "bool"
        }
      ],
      "name": "ApprovalForAll",
      "type": "event"
    },
    {
      "anonymous": false,
      "inputs": [
        {
          "indexed": true,
          "internalType": "address",
          "name": "previousOwner",
          "type": "address"
        },
        {
          "indexed": true,
          "internalType": "address",
          "name": "newOwner",
          "type": "address"
        }
      ],
      "name": "OwnershipTransferred",
      "type": "event"
    },
    {
      "anonymous": false,
      "inputs": [
        {
          "indexed": true,
          "internalType": "address",
          "name": "operator",
          "type": "address"
        },
        {
          "indexed": true,
          "internalType": "address",
          "name": "from",
          "type": "address"
        },
        {
          "indexed": true,
          "internalType": "address",
          "name": "to",
          "type": "address"
        },
        {
          "indexed": false,
          "internalType": "uint256[]",
          "name": "ids",
          "type": "uint256[]"
        },
        {
          "indexed": false,
          "internalType": "uint256[]",
          "name": "values",
          "type": "uint256[]"
        }
      ],
      "name": "TransferBatch",
      "type": "event"
    },
    {
      "anonymous": false,
      "inputs": [
        {
          "indexed": true,
          "internalType": "address",
          "name": "operator",
          "type": "address"
        },
        {
          "indexed": true,
          "internalType": "address",
          "name": "from",
          "type": "address"
        },
        {
          "indexed": true,
          "internalType": "address",
          "name": "to",
          "type": "address"
        },
        {
          "indexed": false,
          "internalType": "uint256",
          "name": "id",
          "type": "uint256"
        },
        {
          "indexed": false,
          "internalType": "uint256",
          "name": "value",
          "type": "uint256"
        }
      ],
      "name": "TransferSingle",
      "type": "event"
    },
    {
      "anonymous": false,
      "inputs": [
        {
          "indexed": false,
          "internalType": "string",
          "name": "value",
          "type": "string"
        },
        {
          "indexed": true,
          "internalType": "uint256",
          "name": "id",
          "type": "uint256"
        }
      ],
      "name": "URI",
      "type": "event"
    },
    {
      "inputs": [],
      "name": "DYNAMIC_NFT",
      "outputs": [
        {
          "internalType": "uint256",
          "name": "",
          "type": "uint256"
        }
      ],
      "stateMutability": "view",
      "type": "function"
    },
    {
      "inputs": [
        {
          "internalType": "address",
          "name": "account",
          "type": "address"
        },
        {
          "internalType": "uint256",
          "name": "id",
          "type": "uint256"
        }
      ],
      "name": "balanceOf",
      "outputs": [
        {
          "internalType": "uint256",
          "name": "",
          "type": "uint256"
        }
      ],
      "stateMutability": "view",
      "type": "function"
    },
    {
      "inputs": [
        {
          "internalType": "address[]",
          "name": "accounts",
          "type": "address[]"
        },
        {
          "internalType": "uint256[]",
          "name": "ids",
          "type": "uint256[]"
        }
      ],
      "name": "balanceOfBatch",
      "outputs": [
        {
          "internalType": "uint256[]",
          "name": "",
          "type": "uint256[]"
        }
      ],
      "stateMutability": "view",
      "type": "function"
    },
    {
      "inputs": [
        {
          "internalType": "address",
          "name": "account",
          "type": "address"
        },
        {
          "internalType": "address",
          "name": "operator",
          "type": "address"
        }
      ],
      "name": "isApprovedForAll",
      "outputs": [
        {
          "internalType": "bool",
          "name": "",
          "type": "bool"
        }
      ],
      "stateMutability": "view",
      "type": "function"
    },
    {
      "inputs": [],
      "name": "owner",
      "outputs": [
        {
          "internalType": "address",
          "name": "",
          "type": "address"
        }
      ],
      "stateMutability": "view",
      "type": "function"
    },
    {
      "inputs": [],
      "name": "renounceOwnership",
      "outputs": [],
      "stateMutability": "nonpayable",
      "type": "function"
    },
    {
      "inputs": [
        {
          "internalType": "address",
          "name": "from",
          "type": "address"
        },
        {
          "internalType": "address",
          "name": "to",
          "type": "address"
        },
        {
          "internalType": "uint256[]",
          "name": "ids",
          "type": "uint256[]"
        },
        {
          "internalType": "uint256[]",
          "name": "amounts",
          "type": "uint256[]"
        },
        {
          "internalType": "bytes",
          "name": "data",
          "type": "bytes"
        }
      ],
      "name": "safeBatchTransferFrom",
      "outputs": [],
      "stateMutability": "nonpayable",
      "type": "function"
    },
    {
      "inputs": [
        {
          "internalType": "address",
          "name": "from",
          "type": "address"
        },
        {
          "internalType": "address",
          "name": "to",
          "type": "address"
        },
        {
          "internalType": "uint256",
          "name": "id",
          "type": "uint256"
        },
        {
          "internalType": "uint256",
          "name": "amount",
          "type": "uint256"
        },
        {
          "internalType": "bytes",
          "name": "data",
          "type": "bytes"
        }
      ],
      "name": "safeTransferFrom",
      "outputs": [],
      "stateMutability": "nonpayable",
      "type": "function"
    },
    {
      "inputs": [
        {
          "internalType": "address",
          "name": "operator",
          "type": "address"
        },
        {
          "internalType": "bool",
          "name": "approved",
          "type": "bool"
        }
      ],
      "name": "setApprovalForAll",
      "outputs": [],
      "stateMutability": "nonpayable",
      "type": "function"
    },
    {
      "inputs": [
        {
          "internalType": "bytes4",
          "name": "interfaceId",
          "type": "bytes4"
        }
      ],
      "name": "supportsInterface",
      "outputs": [
        {
          "internalType": "bool",
          "name": "",
          "type": "bool"
        }
      ],
      "stateMutability": "view",
      "type": "function"
    },
    {
      "inputs": [],
      "name": "tokenSupply",
      "outputs": [
        {
          "internalType": "uint256",
          "name": "",
          "type": "uint256"
        }
      ],
      "stateMutability": "view",
      "type": "function"
    },
    {
      "inputs": [
        {
          "internalType": "address",
          "name": "newOwner",
          "type": "address"
        }
      ],
      "name": "transferOwnership",
      "outputs": [],
      "stateMutability": "nonpayable",
      "type": "function"
    },
    {
      "inputs": [
        {
          "internalType": "string",
          "name": "newBaseURI",
          "type": "string"
        }
      ],
      "name": "setBaseURI",
      "outputs": [],
      "stateMutability": "nonpayable",
      "type": "function"
    },
    {
      "inputs": [
        {
          "internalType": "uint256",
          "name": "tokenId",
          "type": "uint256"
        }
      ],
      "name": "uri",
      "outputs": [
        {
          "internalType": "string",
          "name": "",
          "type": "string"
        }
      ],
      "stateMutability": "view",
      "type": "function"
    },
    {
      "inputs": [
        {
          "internalType": "address",
          "name": "to",
          "type": "address"
        },
        {
          "internalType": "uint256",
          "name": "tokenId",
          "type": "uint256"
        },
        {
          "internalType": "uint256",
          "name": "amount",
          "type": "uint256"
        },
        {
          "internalType": "bytes",
          "name": "data",
          "type": "bytes"
        }
      ],
      "name": "mint",
      "outputs": [],
      "stateMutability": "nonpayable",
      "type": "function"
    },
    {
      "inputs": [
        {
          "internalType": "address",
          "name": "account",
          "type": "address"
        },
        {
          "internalType": "uint256",
          "name": "tokenId",
          "type": "uint256"
        },
        {
          "internalType": "uint256",
          "name": "amount",
          "type": "uint256"
        }
      ],
      "name": "burn",
      "outputs": [],
      "stateMutability": "nonpayable",
      "type": "function"
    }
  ],
  "bytecode": "0x60806040523480156200001157600080fd5b5060405162003e9e38038062003e9e8339818101604052810190620000379190620002f9565b8062000049816200008360201b60201c565b506200006a6200005e6200009860201b60201c565b620000a060201b60201c565b80600590816200007b919062000595565b50506200067c565b806002908162000094919062000595565b5050565b600033905090565b6000600360009054906101000a900473ffffffffffffffffffffffffffffffffffffffff16905081600360006101000a81548173ffffffffffffffffffffffffffffffffffffffff021916908373ffffffffffffffffffffffffffffffffffffffff1602179055508173ffffffffffffffffffffffffffffffffffffffff168173ffffffffffffffffffffffffffffffffffffffff167f8be0079c531659141344cd1fd0a4f28419497f9722a3daafe3b4186f6b6457e060405160405180910390a35050565b6000604051905090565b600080fd5b600080fd5b600080fd5b600080fd5b6000601f19601f8301169050919050565b7f4e487b7100000000000000000000000000000000000000000000000000000000600052604160045260246000fd5b620001cf8262000184565b810181811067ffffffffffffffff82111715620001f157620001f062000195565b5b80604052505050565b60006200020662000166565b9050620002148282620001c4565b919050565b600067ffffffffffffffff82111562000237576200023662000195565b5b620002428262000184565b9050602081019050919050565b60005b838110156200026f57808201518184015260208101905062000252565b60008484015250505050565b6000620002926200028c8462000219565b620001fa565b905082815260208101848484011115620002b157620002b06200017f565b5b620002be8482856200024f565b509392505050565b600082601f830112620002de57620002dd6200017a565b5b8151620002f08482602086016200027b565b91505092915050565b60006020828403121562000312576200031162000170565b5b600082015167ffffffffffffffff81111562000333576200033262000175565b5b6200034184828501620002c6565b91505092915050565b600081519050919050565b7f4e487b7100000000000000000000000000000000000000000000000000000000600052602260045260246000fd5b600060028204905060018216806200039d57607f821691505b602082108103620003b357620003b262000355565b5b50919050565b60008190508160005260206000209050919050565b60006020601f8301049050919050565b600082821b905092915050565b6000600883026200041d7fffffffffffffffffffffffffffffffffffffffffffffffffffffffffffffffff82620003de565b620004298683620003de565b95508019841693508086168417925050509392505050565b6000819050919050565b6000819050919050565b600062000476620004706200046a8462000441565b6200044b565b62000441565b9050919050565b6000819050919050565b620004928362000455565b620004aa620004a1826200047d565b848454620003eb565b825550505050565b600090565b620004c1620004b2565b620004ce81848462000487565b505050565b5b81811015620004f657620004ea600082620004b7565b600181019050620004d4565b5050565b601f82111562000545576200050f81620003b9565b6200051a84620003ce565b810160208510156200052a578190505b620005426200053985620003ce565b830182620004d3565b50505b505050565b600082821c905092915050565b60006200056a600019846008026200054a565b1980831691505092915050565b600062000585838362000557565b9150826002028217905092915050565b620005a0826200034a565b67ffffffffffffffff811115620005bc57620005bb62000195565b5b620005c8825462000384565b620005d5828285620004fa565b600060209050601f8311600181146200060d5760008415620005f8578287015190505b62000604858262000577565b86555062000674565b601f1984166200061d86620003b9565b60005b82811015620006475784890151825560018201915060208501945060208101905062000620565b8683101562000667578489015162000663601f89168262000557565b8355505b6001600288020188555050505b505050505050565b613812806200068c6000396000f3fe608060405234801561001057600080fd5b50600436106100ff5760003560e01c80637824407f11610097578063f242432a11610066578063f242432a146102aa578063f2fde38b146102c6578063f5298aca146102e2578063ffcb8c37146102fe576100ff565b80637824407f146102225780638da5cb5b14610240578063a22cb4651461025e578063e985e9c51461027a576100ff565b80634e1273f4116100d35780634e1273f4146101b057806355f804b3146101e0578063715018a6146101fc578063731133e914610206576100ff565b8062fdd58e1461010457806301ffc9a7146101345780630e89341c146101645780632eb2c2d614610194575b600080fd5b61011e60048036038101906101199190611db9565b61031c565b60405161012b9190611e08565b60405180910390f35b61014e60048036038101906101499190611e7b565b6103e4565b60405161015b9190611ec3565b60405180910390f35b61017e60048036038101906101799190611ede565b6104c6565b60405161018b9190611f9b565b60405180910390f35b6101ae60048036038101906101a991906121ba565b6104fa565b005b6101ca60048036038101906101c5919061234c565b61059b565b6040516101d79190612482565b60405180910390f35b6101fa60048036038101906101f59190612545565b6106b4565b005b6102046106cf565b005b610220600480360381019061021b919061258e565b6106e3565b005b61022a610716565b6040516102379190611e08565b60405180910390f35b61024861071c565b6040516102559190612620565b60405180910390f35b61027860048036038101906102739190612667565b610746565b005b610294600480360381019061028f91906126a7565b61075c565b6040516102a19190611ec3565b60405180910390f35b6102c460048036038101906102bf91906126e7565b6107f0565b005b6102e060048036038101906102db919061277e565b610891565b005b6102fc60048036038101906102f791906127ab565b610914565b005b6103066109bc565b6040516103139190611e08565b60405180910390f35b60008073ffffffffffffffffffffffffffffffffffffffff168373ffffffffffffffffffffffffffffffffffffffff160361038c576040517f08c379a000000000000000000000000000000000000000000000000000000000815260040161038390612870565b60405180910390fd5b60008083815260200190815260200160002060008473ffffffffffffffffffffffffffffffffffffffff1673ffffffffffffffffffffffffffffffffffffffff16815260200190815260200160002054905092915050565b60007fd9b67a26000000000000000000000000000000000000000000000000000000007bffffffffffffffffffffffffffffffffffffffffffffffffffffffff1916827bffffffffffffffffffffffffffffffffffffffffffffffffffffffff191614806104af57507f0e89341c000000000000000000000000000000000000000000000000000000007bffffffffffffffffffffffffffffffffffffffffffffffffffffffff1916827bffffffffffffffffffffffffffffffffffffffffffffffffffffffff1916145b806104bf57506104be826109c1565b5b9050919050565b606060056104d383610a2b565b6040516020016104e49291906129c4565b6040516020818303038152906040529050919050565b610502610af9565b73ffffffffffffffffffffffffffffffffffffffff168573ffffffffffffffffffffffffffffffffffffffff161480610548575061054785610542610af9565b61075c565b5b610587576040517f08c379a000000000000000000000000000000000000000000000000000000000815260040161057e90612a5a565b60405180910390fd5b6105948585858585610b01565b5050505050565b606081518351146105e1576040517f08c379a00000000000000000000000000000000000000000000000000000000081526004016105d890612aec565b60405180910390fd5b6000835167ffffffffffffffff8111156105fe576105fd611fc2565b5b60405190808252806020026020018201604052801561062c5781602001602082028036833780820191505090505b50905060005b84518110156106a95761067985828151811061065157610650612b0c565b5b602002602001015185838151811061066c5761066b612b0c565b5b602002602001015161031c565b82828151811061068c5761068b612b0c565b5b602002602001018181525050806106a290612b6a565b9050610632565b508091505092915050565b6106bc610e22565b80600590816106cb9190612d49565b5050565b6106d7610e22565b6106e16000610ea0565b565b6106eb610e22565b6106f784848484610f66565b81600460008282546107099190612e1b565b9250508190555050505050565b60045481565b6000600360009054906101000a900473ffffffffffffffffffffffffffffffffffffffff16905090565b610758610751610af9565b8383611116565b5050565b6000600160008473ffffffffffffffffffffffffffffffffffffffff1673ffffffffffffffffffffffffffffffffffffffff16815260200190815260200160002060008373ffffffffffffffffffffffffffffffffffffffff1673ffffffffffffffffffffffffffffffffffffffff16815260200190815260200160002060009054906101000a900460ff16905092915050565b6107f8610af9565b73ffffffffffffffffffffffffffffffffffffffff168573ffffffffffffffffffffffffffffffffffffffff16148061083e575061083d85610838610af9565b61075c565b5b61087d576040517f08c379a000000000000000000000000000000000000000000000000000000000815260040161087490612a5a565b60405180910390fd5b61088a8585858585611282565b5050505050565b610899610e22565b600073ffffffffffffffffffffffffffffffffffffffff168173ffffffffffffffffffffffffffffffffffffffff1603610908576040517f08c379a00000000000000000000000000000000000000000000000000000000081526004016108ff90612ec1565b60405180910390fd5b61091181610ea0565b50565b8273ffffffffffffffffffffffffffffffffffffffff163373ffffffffffffffffffffffffffffffffffffffff1614806109545750610953833361075c565b5b610993576040517f08c379a000000000000000000000000000000000000000000000000000000000815260040161098a90612f53565b60405180910390fd5b61099e83838361151d565b80600460008282546109b09190612f73565b92505081905550505050565b600081565b60007f01ffc9a7000000000000000000000000000000000000000000000000000000007bffffffffffffffffffffffffffffffffffffffffffffffffffffffff1916827bffffffffffffffffffffffffffffffffffffffffffffffffffffffff1916149050919050565b606060006001610a3a84611763565b01905060008167ffffffffffffffff811115610a5957610a58611fc2565b5b6040519080825280601f01601f191660200182016040528015610a8b5781602001600182028036833780820191505090505b509050600082602001820190505b600115610aee578080600190039150507f3031323334353637383961626364656600000000000000000000000000000000600a86061a8153600a8581610ae257610ae1612fa7565b5b04945060008503610a99575b819350505050919050565b600033905090565b8151835114610b45576040517f08c379a0000000000000000000000000000000000000000000000000000000008152600401610b3c90613048565b60405180910390fd5b600073ffffffffffffffffffffffffffffffffffffffff168473ffffffffffffffffffffffffffffffffffffffff1603610bb4576040517f08c379a0000000000000000000000000000000000000000000000000000000008152600401610bab906130da565b60405180910390fd5b6000610bbe610af9565b9050610bce8187878787876118b6565b60005b8451811015610d7f576000858281518110610bef57610bee612b0c565b5b602002602001015190506000858381518110610c0e57610c0d612b0c565b5b60200260200101519050600080600084815260200190815260200160002060008b73ffffffffffffffffffffffffffffffffffffffff1673ffffffffffffffffffffffffffffffffffffffff16815260200190815260200160002054905081811015610caf576040517f08c379a0000000000000000000000000000000000000000000000000000000008152600401610ca69061316c565b60405180910390fd5b81810360008085815260200190815260200160002060008c73ffffffffffffffffffffffffffffffffffffffff1673ffffffffffffffffffffffffffffffffffffffff168152602001908152602001600020819055508160008085815260200190815260200160002060008b73ffffffffffffffffffffffffffffffffffffffff1673ffffffffffffffffffffffffffffffffffffffff1681526020019081526020016000206000828254610d649190612e1b565b9250508190555050505080610d7890612b6a565b9050610bd1565b508473ffffffffffffffffffffffffffffffffffffffff168673ffffffffffffffffffffffffffffffffffffffff168273ffffffffffffffffffffffffffffffffffffffff167f4a39dc06d4c0dbc64b70af90fd698a233a518aa5d07e595d983b8c0526c8f7fb8787604051610df692919061318c565b60405180910390a4610e0c8187878787876118be565b610e1a8187878787876118c6565b505050505050565b610e2a610af9565b73ffffffffffffffffffffffffffffffffffffffff16610e4861071c565b73ffffffffffffffffffffffffffffffffffffffff1614610e9e576040517f08c379a0000000000000000000000000000000000000000000000000000000008152600401610e959061320f565b60405180910390fd5b565b6000600360009054906101000a900473ffffffffffffffffffffffffffffffffffffffff16905081600360006101000a81548173ffffffffffffffffffffffffffffffffffffffff021916908373ffffffffffffffffffffffffffffffffffffffff1602179055508173ffffffffffffffffffffffffffffffffffffffff168173ffffffffffffffffffffffffffffffffffffffff167f8be0079c531659141344cd1fd0a4f28419497f9722a3daafe3b4186f6b6457e060405160405180910390a35050565b600073ffffffffffffffffffffffffffffffffffffffff168473ffffffffffffffffffffffffffffffffffffffff1603610fd5576040517f08c379a0000000000000000000000000000000000000000000000000000000008152600401610fcc906132a1565b60405180910390fd5b6000610fdf610af9565b90506000610fec85611a9d565b90506000610ff985611a9d565b905061100a836000898585896118b6565b8460008088815260200190815260200160002060008973ffffffffffffffffffffffffffffffffffffffff1673ffffffffffffffffffffffffffffffffffffffff16815260200190815260200160002060008282546110699190612e1b565b925050819055508673ffffffffffffffffffffffffffffffffffffffff16600073ffffffffffffffffffffffffffffffffffffffff168473ffffffffffffffffffffffffffffffffffffffff167fc3d58168c5ae7397731d063d5bbf3d657854427343f4c083240f7aacaa2d0f6289896040516110e79291906132c1565b60405180910390a46110fe836000898585896118be565b61110d83600089898989611b17565b50505050505050565b8173ffffffffffffffffffffffffffffffffffffffff168373ffffffffffffffffffffffffffffffffffffffff1603611184576040517f08c379a000000000000000000000000000000000000000000000000000000000815260040161117b9061335c565b60405180910390fd5b80600160008573ffffffffffffffffffffffffffffffffffffffff1673ffffffffffffffffffffffffffffffffffffffff16815260200190815260200160002060008473ffffffffffffffffffffffffffffffffffffffff1673ffffffffffffffffffffffffffffffffffffffff16815260200190815260200160002060006101000a81548160ff0219169083151502179055508173ffffffffffffffffffffffffffffffffffffffff168373ffffffffffffffffffffffffffffffffffffffff167f17307eab39ab6107e8899845ad3d59bd9653f200f220920489ca2b5937696c31836040516112759190611ec3565b60405180910390a3505050565b600073ffffffffffffffffffffffffffffffffffffffff168473ffffffffffffffffffffffffffffffffffffffff16036112f1576040517f08c379a00000000000000000000000000000000000000000000000000000000081526004016112e8906130da565b60405180910390fd5b60006112fb610af9565b9050600061130885611a9d565b9050600061131585611a9d565b90506113258389898585896118b6565b600080600088815260200190815260200160002060008a73ffffffffffffffffffffffffffffffffffffffff1673ffffffffffffffffffffffffffffffffffffffff168152602001908152602001600020549050858110156113bc576040517f08c379a00000000000000000000000000000000000000000000000000000000081526004016113b39061316c565b60405180910390fd5b85810360008089815260200190815260200160002060008b73ffffffffffffffffffffffffffffffffffffffff1673ffffffffffffffffffffffffffffffffffffffff168152602001908152602001600020819055508560008089815260200190815260200160002060008a73ffffffffffffffffffffffffffffffffffffffff1673ffffffffffffffffffffffffffffffffffffffff16815260200190815260200160002060008282546114719190612e1b565b925050819055508773ffffffffffffffffffffffffffffffffffffffff168973ffffffffffffffffffffffffffffffffffffffff168573ffffffffffffffffffffffffffffffffffffffff167fc3d58168c5ae7397731d063d5bbf3d657854427343f4c083240f7aacaa2d0f628a8a6040516114ee9291906132c1565b60405180910390a4611504848a8a86868a6118be565b611512848a8a8a8a8a611b17565b505050505050505050565b600073ffffffffffffffffffffffffffffffffffffffff168373ffffffffffffffffffffffffffffffffffffffff160361158c576040517f08c379a0000000000000000000000000000000000000000000000000000000008152600401611583906133ee565b60405180910390fd5b6000611596610af9565b905060006115a384611a9d565b905060006115b084611a9d565b90506115d0838760008585604051806020016040528060008152506118b6565b600080600087815260200190815260200160002060008873ffffffffffffffffffffffffffffffffffffffff1673ffffffffffffffffffffffffffffffffffffffff16815260200190815260200160002054905084811015611667576040517f08c379a000000000000000000000000000000000000000000000000000000000815260040161165e90613480565b60405180910390fd5b84810360008088815260200190815260200160002060008973ffffffffffffffffffffffffffffffffffffffff1673ffffffffffffffffffffffffffffffffffffffff16815260200190815260200160002081905550600073ffffffffffffffffffffffffffffffffffffffff168773ffffffffffffffffffffffffffffffffffffffff168573ffffffffffffffffffffffffffffffffffffffff167fc3d58168c5ae7397731d063d5bbf3d657854427343f4c083240f7aacaa2d0f6289896040516117349291906132c1565b60405180910390a461175a848860008686604051806020016040528060008152506118be565b50505050505050565b600080600090507a184f03e93ff9f4daa797ed6e38ed64bf6a1f01000000000000000083106117c1577a184f03e93ff9f4daa797ed6e38ed64bf6a1f01000000000000000083816117b7576117b6612fa7565b5b0492506040810190505b6d04ee2d6d415b85acef810000000083106117fe576d04ee2d6d415b85acef810000000083816117f4576117f3612fa7565b5b0492506020810190505b662386f26fc10000831061182d57662386f26fc10000838161182357611822612fa7565b5b0492506010810190505b6305f5e1008310611856576305f5e100838161184c5761184b612fa7565b5b0492506008810190505b612710831061187b57612710838161187157611870612fa7565b5b0492506004810190505b6064831061189e576064838161189457611893612fa7565b5b0492506002810190505b600a83106118ad576001810190505b80915050919050565b505050505050565b505050505050565b6118e58473ffffffffffffffffffffffffffffffffffffffff16611cee565b15611a95578373ffffffffffffffffffffffffffffffffffffffff1663bc197c8187878686866040518663ffffffff1660e01b815260040161192b9594939291906134f5565b6020604051808303816000875af192505050801561196757506040513d601f19601f820116820180604052508101906119649190613572565b60015b611a0c576119736135ac565b806308c379a0036119cf57506119876135ce565b8061199257506119d1565b806040517f08c379a00000000000000000000000000000000000000000000000000000000081526004016119c69190611f9b565b60405180910390fd5b505b6040517f08c379a0000000000000000000000000000000000000000000000000000000008152600401611a03906136d0565b60405180910390fd5b63bc197c8160e01b7bffffffffffffffffffffffffffffffffffffffffffffffffffffffff1916817bffffffffffffffffffffffffffffffffffffffffffffffffffffffff191614611a93576040517f08c379a0000000000000000000000000000000000000000000000000000000008152600401611a8a90613762565b60405180910390fd5b505b505050505050565b60606000600167ffffffffffffffff811115611abc57611abb611fc2565b5b604051908082528060200260200182016040528015611aea5781602001602082028036833780820191505090505b5090508281600081518110611b0257611b01612b0c565b5b60200260200101818152505080915050919050565b611b368473ffffffffffffffffffffffffffffffffffffffff16611cee565b15611ce6578373ffffffffffffffffffffffffffffffffffffffff1663f23a6e6187878686866040518663ffffffff1660e01b8152600401611b7c959493929190613782565b6020604051808303816000875af1925050508015611bb857506040513d601f19601f82011682018060405250810190611bb59190613572565b60015b611c5d57611bc46135ac565b806308c379a003611c205750611bd86135ce565b80611be35750611c22565b806040517f08c379a0000000000000000000000000000000000000000000000000000000008152600401611c179190611f9b565b60405180910390fd5b505b6040517f08c379a0000000000000000000000000000000000000000000000000000000008152600401611c54906136d0565b60405180910390fd5b63f23a6e6160e01b7bffffffffffffffffffffffffffffffffffffffffffffffffffffffff1916817bffffffffffffffffffffffffffffffffffffffffffffffffffffffff191614611ce4576040517f08c379a0000000000000000000000000000000000000000000000000000000008152600401611cdb90613762565b60405180910390fd5b505b505050505050565b6000808273ffffffffffffffffffffffffffffffffffffffff163b119050919050565b6000604051905090565b600080fd5b600080fd5b600073ffffffffffffffffffffffffffffffffffffffff82169050919050565b6000611d5082611d25565b9050919050565b611d6081611d45565b8114611d6b57600080fd5b50565b600081359050611d7d81611d57565b92915050565b6000819050919050565b611d9681611d83565b8114611da157600080fd5b50565b600081359050611db381611d8d565b92915050565b60008060408385031215611dd057611dcf611d1b565b5b6000611dde85828601611d6e565b9250506020611def85828601611da4565b9150509250929050565b611e0281611d83565b82525050565b6000602082019050611e1d6000830184611df9565b92915050565b60007fffffffff0000000000000000000000000000000000000000000000000000000082169050919050565b611e5881611e23565b8114611e6357600080fd5b50565b600081359050611e7581611e4f565b92915050565b600060208284031215611e9157611e90611d1b565b5b6000611e9f84828501611e66565b91505092915050565b60008115159050919050565b611ebd81611ea8565b82525050565b6000602082019050611ed86000830184611eb4565b92915050565b600060208284031215611ef457611ef3611d1b565b5b6000611f0284828501611da4565b91505092915050565b600081519050919050565b600082825260208201905092915050565b60005b83811015611f45578082015181840152602081019050611f2a565b60008484015250505050565b6000601f19601f8301169050919050565b6000611f6d82611f0b565b611f778185611f16565b9350611f87818560208601611f27565b611f9081611f51565b840191505092915050565b60006020820190508181036000830152611fb58184611f62565b905092915050565b600080fd5b7f4e487b7100000000000000000000000000000000000000000000000000000000600052604160045260246000fd5b611ffa82611f51565b810181811067ffffffffffffffff8211171561201957612018611fc2565b5b80604052505050565b600061202c611d11565b90506120388282611ff1565b919050565b600067ffffffffffffffff82111561205857612057611fc2565b5b602082029050602081019050919050565b600080fd5b600061208161207c8461203d565b612022565b905080838252602082019050602084028301858111156120a4576120a3612069565b5b835b818110156120cd57806120b98882611da4565b8452602084019350506020810190506120a6565b5050509392505050565b600082601f8301126120ec576120eb611fbd565b5b81356120fc84826020860161206e565b91505092915050565b600080fd5b600067ffffffffffffffff82111561212557612124611fc2565b5b61212e82611f51565b9050602081019050919050565b82818337600083830152505050565b600061215d6121588461210a565b612022565b90508281526020810184848401111561217957612178612105565b5b61218484828561213b565b509392505050565b600082601f8301126121a1576121a0611fbd565b5b81356121b184826020860161214a565b91505092915050565b600080600080600060a086880312156121d6576121d5611d1b565b5b60006121e488828901611d6e565b95505060206121f588828901611d6e565b945050604086013567ffffffffffffffff81111561221657612215611d20565b5b612222888289016120d7565b935050606086013567ffffffffffffffff81111561224357612242611d20565b5b61224f888289016120d7565b925050608086013567ffffffffffffffff8111156122705761226f611d20565b5b61227c8882890161218c565b9150509295509295909350565b600067ffffffffffffffff8211156122a4576122a3611fc2565b5b602082029050602081019050919050565b60006122c86122c384612289565b612022565b905080838252602082019050602084028301858111156122eb576122ea612069565b5b835b8181101561231457806123008882611d6e565b8452602084019350506020810190506122ed565b5050509392505050565b600082601f83011261233357612332611fbd565b5b81356123438482602086016122b5565b91505092915050565b6000806040838503121561236357612362611d1b565b5b600083013567ffffffffffffffff81111561238157612380611d20565b5b61238d8582860161231e565b925050602083013567ffffffffffffffff8111156123ae576123ad611d20565b5b6123ba858286016120d7565b9150509250929050565b600081519050919050565b600082825260208201905092915050565b6000819050602082019050919050565b6123f981611d83565b82525050565b600061240b83836123f0565b60208301905092915050565b6000602082019050919050565b600061242f826123c4565b61243981856123cf565b9350612444836123e0565b8060005b8381101561247557815161245c88826123ff565b975061246783612417565b925050600181019050612448565b5085935050505092915050565b6000602082019050818103600083015261249c8184612424565b905092915050565b600067ffffffffffffffff8211156124bf576124be611fc2565b5b6124c882611f51565b9050602081019050919050565b60006124e86124e3846124a4565b612022565b90508281526020810184848401111561250457612503612105565b5b61250f84828561213b565b509392505050565b600082601f83011261252c5761252b611fbd565b5b813561253c8482602086016124d5565b91505092915050565b60006020828403121561255b5761255a611d1b565b5b600082013567ffffffffffffffff81111561257957612578611d20565b5b61258584828501612517565b91505092915050565b600080600080608085870312156125a8576125a7611d1b565b5b60006125b687828801611d6e565b94505060206125c787828801611da4565b93505060406125d887828801611da4565b925050606085013567ffffffffffffffff8111156125f9576125f8611d20565b5b6126058782880161218c565b91505092959194509250565b61261a81611d45565b82525050565b60006020820190506126356000830184612611565b92915050565b61264481611ea8565b811461264f57600080fd5b50565b6000813590506126618161263b565b92915050565b6000806040838503121561267e5761267d611d1b565b5b600061268c85828601611d6e565b925050602061269d85828601612652565b9150509250929050565b600080604083850312156126be576126bd611d1b565b5b60006126cc85828601611d6e565b92505060206126dd85828601611d6e565b9150509250929050565b600080600080600060a0868803121561270357612702611d1b565b5b600061271188828901611d6e565b955050602061272288828901611d6e565b945050604061273388828901611da4565b935050606061274488828901611da4565b925050608086013567ffffffffffffffff81111561276557612764611d20565b5b6127718882890161218c565b9150509295509295909350565b60006020828403121561279457612793611d1b565b5b60006127a284828501611d6e565b91505092915050565b6000806000606084860312156127c4576127c3611d1b565b5b60006127d286828701611d6e565b93505060206127e386828701611da4565b92505060406127f486828701611da4565b9150509250925092565b7f455243313135353a2061646472657373207a65726f206973206e6f742061207660008201527f616c6964206f776e657200000000000000000000000000000000000000000000602082015250565b600061285a602a83611f16565b9150612865826127fe565b604082019050919050565b600060208201905081810360008301526128898161284d565b9050919050565b7f4e487b7100000000000000000000000000000000000000000000000000000000600052602260045260246000fd5b600060028204905060018216806128d757607f821691505b6020821081036128ea576128e9612890565b5b50919050565b600081905092915050565b60008190508160005260206000209050919050565b6000815461291d816128bf565b61292781866128f0565b9450600182166000811461294257600181146129575761298a565b60ff198316865281151582028601935061298a565b612960856128fb565b60005b8381101561298257815481890152600182019150602081019050612963565b838801955050505b50505092915050565b600061299e82611f0b565b6129a881856128f0565b93506129b8818560208601611f27565b80840191505092915050565b60006129d08285612910565b91506129dc8284612993565b91508190509392505050565b7f455243313135353a2063616c6c6572206973206e6f7420746f6b656e206f776e60008201527f6572206f7220617070726f766564000000000000000000000000000000000000602082015250565b6000612a44602e83611f16565b9150612a4f826129e8565b604082019050919050565b60006020820190508181036000830152612a7381612a37565b9050919050565b7f455243313135353a206163636f756e747320616e6420696473206c656e67746860008201527f206d69736d617463680000000000000000000000000000000000000000000000602082015250565b6000612ad6602983611f16565b9150612ae182612a7a565b604082019050919050565b60006020820190508181036000830152612b0581612ac9565b9050919050565b7f4e487b7100000000000000000000000000000000000000000000000000000000600052603260045260246000fd5b7f4e487b7100000000000000000000000000000000000000000000000000000000600052601160045260246000fd5b6000612b7582611d83565b91507fffffffffffffffffffffffffffffffffffffffffffffffffffffffffffffffff8203612ba757612ba6612b3b565b5b600182019050919050565b60006020601f8301049050919050565b600082821b905092915050565b600060088302612bff7fffffffffffffffffffffffffffffffffffffffffffffffffffffffffffffffff82612bc2565b612c098683612bc2565b95508019841693508086168417925050509392505050565b6000819050919050565b6000612c46612c41612c3c84611d83565b612c21565b611d83565b9050919050565b6000819050919050565b612c6083612c2b565b612c74612c6c82612c4d565b848454612bcf565b825550505050565b600090565b612c89612c7c565b612c94818484612c57565b505050565b5b81811015612cb857612cad600082612c81565b600181019050612c9a565b5050565b601f821115612cfd57612cce816128fb565b612cd784612bb2565b81016020851015612ce6578190505b612cfa612cf285612bb2565b830182612c99565b50505b505050565b600082821c905092915050565b6000612d2060001984600802612d02565b1980831691505092915050565b6000612d398383612d0f565b9150826002028217905092915050565b612d5282611f0b565b67ffffffffffffffff811115612d6b57612d6a611fc2565b5b612d7582546128bf565b612d80828285612cbc565b600060209050601f831160018114612db35760008415612da1578287015190505b612dab8582612d2d565b865550612e13565b601f198416612dc1866128fb565b60005b82811015612de957848901518255600182019150602085019450602081019050612dc4565b86831015612e065784890151612e02601f891682612d0f565b8355505b6001600288020188555050505b505050505050565b6000612e2682611d83565b9150612e3183611d83565b9250828201905080821115612e4957612e48612b3b565b5b92915050565b7f4f776e61626c653a206e6577206f776e657220697320746865207a65726f206160008201527f6464726573730000000000000000000000000000000000000000000000000000602082015250565b6000612eab602683611f16565b9150612eb682612e4f565b604082019050919050565b60006020820190508181036000830152612eda81612e9e565b9050919050565b7f44796e616d69634e46543a2063616c6c6572206973206e6f74206f776e65722060008201527f6e6f7220617070726f7665640000000000000000000000000000000000000000602082015250565b6000612f3d602c83611f16565b9150612f4882612ee1565b604082019050919050565b60006020820190508181036000830152612f6c81612f30565b9050919050565b6000612f7e82611d83565b9150612f8983611d83565b9250828203905081811115612fa157612fa0612b3b565b5b92915050565b7f4e487b7100000000000000000000000000000000000000000000000000000000600052601260045260246000fd5b7f455243313135353a2069647320616e6420616d6f756e7473206c656e6774682060008201527f6d69736d61746368000000000000000000000000000000000000000000000000602082015250565b6000613032602883611f16565b915061303d82612fd6565b604082019050919050565b6000602082019050818103600083015261306181613025565b9050919050565b7f455243313135353a207472616e7366657220746f20746865207a65726f20616460008201527f6472657373000000000000000000000000000000000000000000000000000000602082015250565b60006130c4602583611f16565b91506130cf82613068565b604082019050919050565b600060208201905081810360008301526130f3816130b7565b9050919050565b7f455243313135353a20696e73756666696369656e742062616c616e636520666f60008201527f72207472616e7366657200000000000000000000000000000000000000000000602082015250565b6000613156602a83611f16565b9150613161826130fa565b604082019050919050565b6000602082019050818103600083015261318581613149565b9050919050565b600060408201905081810360008301526131a68185612424565b905081810360208301526131ba8184612424565b90509392505050565b7f4f776e61626c653a2063616c6c6572206973206e6f7420746865206f776e6572600082015250565b60006131f9602083611f16565b9150613204826131c3565b602082019050919050565b60006020820190508181036000830152613228816131ec565b9050919050565b7f455243313135353a206d696e7420746f20746865207a65726f2061646472657360008201527f7300000000000000000000000000000000000000000000000000000000000000602082015250565b600061328b602183611f16565b91506132968261322f565b604082019050919050565b600060208201905081810360008301526132ba8161327e565b9050919050565b60006040820190506132d66000830185611df9565b6132e36020830184611df9565b9392505050565b7f455243313135353a2073657474696e6720617070726f76616c2073746174757360008201527f20666f722073656c660000000000000000000000000000000000000000000000602082015250565b6000613346602983611f16565b9150613351826132ea565b604082019050919050565b6000602082019050818103600083015261337581613339565b9050919050565b7f455243313135353a206275726e2066726f6d20746865207a65726f206164647260008201527f6573730000000000000000000000000000000000000000000000000000000000602082015250565b60006133d8602383611f16565b91506133e38261337c565b604082019050919050565b60006020820190508181036000830152613407816133cb565b9050919050565b7f455243313135353a206275726e20616d6f756e7420657863656564732062616c60008201527f616e636500000000000000000000000000000000000000000000000000000000602082015250565b600061346a602483611f16565b91506134758261340e565b604082019050919050565b600060208201905081810360008301526134998161345d565b9050919050565b600081519050919050565b600082825260208201905092915050565b60006134c7826134a0565b6134d181856134ab565b93506134e1818560208601611f27565b6134ea81611f51565b840191505092915050565b600060a08201905061350a6000830188612611565b6135176020830187612611565b81810360408301526135298186612424565b9050818103606083015261353d8185612424565b9050818103608083015261355181846134bc565b90509695505050505050565b60008151905061356c81611e4f565b92915050565b60006020828403121561358857613587611d1b565b5b60006135968482850161355d565b91505092915050565b60008160e01c9050919050565b600060033d11156135cb5760046000803e6135c860005161359f565b90505b90565b600060443d1061365b576135e0611d11565b60043d036004823e80513d602482011167ffffffffffffffff8211171561360857505061365b565b808201805167ffffffffffffffff811115613626575050505061365b565b80602083010160043d03850181111561364357505050505061365b565b61365282602001850186611ff1565b82955050505050505b90565b7f455243313135353a207472616e7366657220746f206e6f6e2d4552433131353560008201527f526563656976657220696d706c656d656e746572000000000000000000000000602082015250565b60006136ba603483611f16565b91506136c58261365e565b604082019050919050565b600060208201905081810360008301526136e9816136ad565b9050919050565b7f455243313135353a204552433131353552656365697665722072656a6563746560008201527f6420746f6b656e73000000000000000000000000000000000000000000000000602082015250565b600061374c602883611f16565b9150613757826136f0565b604082019050919050565b6000602082019050818103600083015261377b8161373f565b9050919050565b600060a0820190506137976000830188612611565b6137a46020830187612611565b6137b16040830186611df9565b6137be6060830185611df9565b81810360808301526137d081846134bc565b9050969550505050505056fea2646970667358221220fd084f9e2096e89bb2abf8aa3df3d33f970ec152c98d58da9afac85ea739e5fa64736f6c63430008130033",
  "immutableReferences": {},
  "source": "pragma solidity ^0.8.0;\n\nimport \"@openzeppelin/contracts/token/ERC1155/ERC1155.sol\";\nimport \"@openzeppelin/contracts/access/Ownable.sol\";\nimport \"@openzeppelin/contracts/utils/Strings.sol\";\n\ncontract DynamicNFT is ERC1155, Ownable {\n    uint256 public constant DYNAMIC_NFT = 0;\n    uint256 public tokenSupply;\n\n    // Metadata URI\n    string private _baseURI;\n\n    constructor(string memory baseURI) ERC1155(baseURI) {\n        _baseURI = baseURI;\n    }\n\n    function setBaseURI(string memory newBaseURI) public onlyOwner {\n        _baseURI = newBaseURI;\n    }\n\n    function uri(uint256 tokenId) public view virtual override returns (string memory) {\n        return string(abi.encodePacked(_baseURI, Strings.toString(tokenId)));\n    }\n\n    function mint(address to, uint256 tokenId, uint256 amount, bytes memory data) public onlyOwner {\n        _mint(to, tokenId, amount, data);\n        tokenSupply += amount;\n    }\n\n    function burn(address account, uint256 tokenId, uint256 amount) public {\n        require(msg.sender == account || isApprovedForAll(account, msg.sender), \"DynamicNFT: caller is not owner nor approved\");\n        _burn(account, tokenId, amount);\n        tokenSupply -= amount;\n    }\n}\n",
  "sourcePath": "/home/cho/Downloads/erc1155_test/contracts/DynamicNFT.sol",
  "compiler": {
    "name": "solc",
    "version": "0.8.19+commit.7dd6d404.Emscripten.clang"
  },
  "schemaVersion": "3.4.13",
  "updatedAt": "2023-05-02T07:34:06.152Z",
  "devdoc": {
    "events": {
      "ApprovalForAll(address,address,bool)": {
        "details": "Emitted when `account` grants or revokes permission to `operator` to transfer their tokens, according to `approved`."
      },
      "TransferBatch(address,address,address,uint256[],uint256[])": {
        "details": "Equivalent to multiple {TransferSingle} events, where `operator`, `from` and `to` are the same for all transfers."
      },
      "TransferSingle(address,address,address,uint256,uint256)": {
        "details": "Emitted when `value` tokens of token type `id` are transferred from `from` to `to` by `operator`."
      },
      "URI(string,uint256)": {
        "details": "Emitted when the URI for token type `id` changes to `value`, if it is a non-programmatic URI. If an {URI} event was emitted for `id`, the standard https://eips.ethereum.org/EIPS/eip-1155#metadata-extensions[guarantees] that `value` will equal the value returned by {IERC1155MetadataURI-uri}."
      }
    },
    "kind": "dev",
    "methods": {
      "balanceOf(address,uint256)": {
        "details": "See {IERC1155-balanceOf}. Requirements: - `account` cannot be the zero address."
      },
      "balanceOfBatch(address[],uint256[])": {
        "details": "See {IERC1155-balanceOfBatch}. Requirements: - `accounts` and `ids` must have the same length."
      },
      "isApprovedForAll(address,address)": {
        "details": "See {IERC1155-isApprovedForAll}."
      },
      "owner()": {
        "details": "Returns the address of the current owner."
      },
      "renounceOwnership()": {
        "details": "Leaves the contract without owner. It will not be possible to call `onlyOwner` functions anymore. Can only be called by the current owner. NOTE: Renouncing ownership will leave the contract without an owner, thereby removing any functionality that is only available to the owner."
      },
      "safeBatchTransferFrom(address,address,uint256[],uint256[],bytes)": {
        "details": "See {IERC1155-safeBatchTransferFrom}."
      },
      "safeTransferFrom(address,address,uint256,uint256,bytes)": {
        "details": "See {IERC1155-safeTransferFrom}."
      },
      "setApprovalForAll(address,bool)": {
        "details": "See {IERC1155-setApprovalForAll}."
      },
      "supportsInterface(bytes4)": {
        "details": "See {IERC165-supportsInterface}."
      },
      "transferOwnership(address)": {
        "details": "Transfers ownership of the contract to a new account (`newOwner`). Can only be called by the current owner."
      }
    },
    "version": 1
  },
  "userdoc": {
    "kind": "user",
    "methods": {},
    "version": 1
  }
}